:020000040000FA
:100000004807002031030000390300003B030000D3
:100010003D0300003F03000041030000000000001A
:10002000000000000000000000000000430300008A
:10003000450300000000000047030000F10200003B
:100040004B0300004D0300004F030000510300006C
:10005000530300005503000057030000590300003C
:100060005B0300005D0300005F030000610300000C
:1000700063030000650300006703000069030000DC
:100080006B0300006D0300006F03000071030000AC
:10009000730300007503000077030000790300007C
:1000A0007B0300007D0300007F030000810300004C
:1000B000830300008503000087030000890300001C
:1000C0008B0300008D0300008F03000091030000EC
:1000D00093030000950300009703000099030000BC
:1000E0009B0300009D030000000000009F03000030
:1000F000A1030000A3030000A5030000A703000064
:10010000A9030000AB030000AD030000AF03000033
:100110000000000000000000B1030000B303000075
:10012000B5030000B7030000B9030000BB030000E3
:10013000BD030000BF030000C1030000C3030000B3
:1001400000000000000000000000000000000000AF
:10015000C5030000C7030000C9030000CB03000073
:10016000000000000000000000000000000000008F
:10017000000000000000000000000000000000007F
:10018000000000000000000000000000000000006F
:10019000000000000000000000000000000000005F
:1001A000000000000000000000000000000000004F
:1001B000CD030000CF030000D1030000D3030000F3
:1001C000D5030000D7030000D9030000DB030000C3
:1001D000DD030000DF030000E1030000E303000093
:1001E000E5030000E7030000E90300000000000051
:1001F00000000000EB030000ED030000EF0300002F
:10020000F1030000F3030000000000000000000004
:10021000F5030000F7030000F9030000FB030000F2
:10022000FD030000FF0300000104000003040000C0
:100230000504000007040000090400000B0400008E
:100240000D0400000F04000011040000130400005E
:100250001504000017040000190400001B0400002E
:100260001D0400001F0400002104000000F002F83B
:1002700000F02EF80AA090E8000C82448344AAF112
:100280000107DA4501D100F023F8AFF2090EBAE810
:100290000F0013F0010F18BFFB1A43F001031847BA
:1002A000AC060000BC060000002300240025002648
:1002B000103A28BF78C1FBD8520728BF30C148BFC9
:1002C0000B6070471FB500F034FB1FBD10B510BDAB
:1002D00000F0BBF81146FFF7F5FF00F029FA00F037
:1002E000D9F803B4FFF7F2FF03BC00F0E1F8000017
:1002F00072B62DE9F00F0D480168C1F800D04968C9
:100300000160D1F800D0BDE8F00F62B67047074831
:100310000268D2F800D0BDE8F00F0FBC5DF804CB46
:1003200001B05DF804EB01B062B670471C05002017
:100330003F4880473F480047FEE7FEE7FEE7FEE70D
:10034000FEE7FEE7FEE7FEE7FEE7FEE7FEE7FEE785
:10035000FEE7FEE7FEE7FEE7FEE7FEE7FEE7FEE775
:10036000FEE7FEE7FEE7FEE7FEE7FEE7FEE7FEE765
:10037000FEE7FEE7FEE7FEE7FEE7FEE7FEE7FEE755
:10038000FEE7FEE7FEE7FEE7FEE7FEE7FEE7FEE745
:10039000FEE7FEE7FEE7FEE7FEE7FEE7FEE7FEE735
:1003A000FEE7FEE7FEE7FEE7FEE7FEE7FEE7FEE725
:1003B000FEE7FEE7FEE7FEE7FEE7FEE7FEE7FEE715
:1003C000FEE7FEE7FEE7FEE7FEE7FEE7FEE7FEE705
:1003D000FEE7FEE7FEE7FEE7FEE7FEE7FEE7FEE7F5
:1003E000FEE7FEE7FEE7FEE7FEE7FEE7FEE7FEE7E5
:1003F000FEE7FEE7FEE7FEE7FEE7FEE7FEE7FEE7D5
:10040000FEE7FEE7FEE7FEE7FEE7FEE7FEE7FEE7C4
:10041000FEE7FEE7FEE7FEE7FEE7FEE7FEE7FEE7B4
:10042000FEE7000004480549034A054B70470000F9
:10043000250600006D020000480500204807002046
:1004400048050020704770477047754600F02CF84B
:10045000AE4605006946534620F00700854618B0B1
:1004600020B5FFF7DFFFBDE820404FF000064FF05A
:1004700000074FF000084FF0000BAC46ACE8C00995
:10048000ACE8C009ACE8C009ACE8C00921F007013C
:100490008D46704710B50446AFF300802046BDE896
:1004A0001040FFF71EBF000000487047000000200A
:1004B00001491820ABBEFEE726000200704700008D
:1004C0004EF20861C4F20F01086840F03E00086077
:1004D00045F20041C4F202010E20086045F21C51B1
:1004E000C4F202010860704745F2FC31C4F2020117
:1004F000086800F0FB0008607047000045F2FC311E
:10050000C4F20201086840F004000860704700006F
:1005100045F2FC31C4F20201086800F0F7000860FF
:100520007047000045F2FC31C4F20201086840F057
:10053000080008607047000045F2FC31C4F2020177
:10054000086800F0FD0008607047000045F2FC31CB
:10055000C4F20201086840F0020008607047000021
:1005600080B586B005900491039272B640F22C508B
:10057000C2F20000019000F10801416000F1100199
:10058000C1604061002000F0F1F8059840F2600180
:10059000C2F200010091C1F888010120029000F030
:1005A000E5F800990498C1F81803022000F0DEF87D
:1005B000009B01990298039AC3F8A82440F21C52A8
:1005C000C2F20002116062B606B080BD72B640F29F
:1005D0002851C2F200014FF47A50086070470000C1
:1005E00080B582B001904EF21001CEF200010020E1
:1005F00008604EF21802CEF200021060019840F23C
:100600002852C2F200021268504301384EF214021E
:10061000CEF20002106007200860FFF778FE02B0FB
:1006200080BD000081B04EF68851CEF2000108680E
:1006300040F4700008604EF27001C4F20F0142F6FF
:100640001000C0F2807008604EF26002C4F20F0227
:1006500043F6D120C0F28E70106042F64250C0F2D4
:100660009E10106042F60000C0F28010086000206A
:100670000090FFE70098C0087C2805D8FFE7FFE757
:10068000009801300090F5E74EF26001C4F20F01CE
:1006900040F64250C0F29E1008604EF27001C4F263
:1006A0000F0140F60000C0F28010086000200090AA
:1006B000FFE70098C0087C2805D8FFE7FFE700980F
:1006C00001300090F5E74EF26001C4F20F0140F6F0
:1006D0004250C0F2DE100860FFE74EF25000C4F254
:1006E0000F00006800F04000402801D0FFE7F4E769
:1006F0004EF26001C4F20F0140F24250C0F2DE102F
:1007000008604EF27001C4F20F014FF0C070086033
:1007100000200090FFE7009842F20F71884205D850
:10072000FFE7FFE7009801300090F4E701B0704761
:1007300080B582B0002000900190FFF747FFFFF7DF
:10074000BFFE40F2A970C0F2000040F62D01C0F2D9
:10075000000140F6B102C0F20002FFF701FF0A20DB
:10076000FFF73EFF009802B080BD000081B000900E
:10077000DDF800C040F26002C2F200024FF4C8711E
:100780000CFB012000F5A87040F22C53C2F20003CC
:1007900043F83C00009800FB01214FF08070C1F845
:1007A0008C0101B07047000080B5FFE740F21051A6
:1007B000C2F20001086801300860FFF7C7FEFFF7CA
:1007C00093FEFFF7A5FE40F22051C2F20001002087
:1007D0000860FFE740F22050C2F200000068FE28E7
:1007E00022DCFFE740F22451C2F200010020086041
:1007F000FFE740F22450C2F200000068B0F57A7FB3
:1008000009DAFFE7FFE740F22451C2F2000108686D
:1008100001300860EDE7FFE740F22051C2F200012D
:10082000086801300860D5E7C0E7000080B5FFE741
:1008300040F21451C2F20001086801300860FFF76D
:100840007BFEFFF75BFEFFF763FE40F22051C2F232
:10085000000100200860FFE740F22050C2F20000D3
:100860000068FE2822DCFFE740F22451C2F20001BA
:1008700000200860FFE740F22450C2F20000006848
:10088000B0F57A7F09DAFFE7FFE740F22451C2F2C0
:100890000001086801300860EDE7FFE740F22051F1
:1008A000C2F20001086801300860D5E7C0E7000027
:1008B00080B5FFE740F21851C2F20001086801302C
:1008C0000860FFF739FEFFF70FFEFFF72BFE40F23F
:1008D0002051C2F2000100200860FFE740F22050E2
:1008E000C2F200000068FE2822DCFFE740F224513B
:1008F000C2F2000100200860FFE740F22450C2F27B
:1009000000000068B0F57A7F09DAFFE7FFE740F200
:100910002451C2F20001086801300860EDE7FFE7EA
:1009200040F22051C2F20001086801300860D5E7AA
:10093000C0E7F1EE100A4FF6FF71C0F2C03120EAB5
:10094000010040F04070E1EE100A70475C090000C1
:0C0950000000002048070000A802000082
:0400000500000331C3
:00000001FF
